{
  "contractName": "ExerciseC6CApp",
  "abi": [
    {
      "inputs": [
        {
          "name": "dataContract",
          "type": "address"
        }
      ],
      "payable": false,
      "stateMutability": "nonpayable",
      "type": "constructor"
    },
    {
      "constant": false,
      "inputs": [
        {
          "name": "id",
          "type": "string"
        },
        {
          "name": "amount",
          "type": "uint256"
        }
      ],
      "name": "addSale",
      "outputs": [],
      "payable": false,
      "stateMutability": "nonpayable",
      "type": "function"
    }
  ],
  "bytecode": "0x608060405234801561001057600080fd5b506040516020806104d183398101806040528101908080519060200190929190505050336000806101000a81548173ffffffffffffffffffffffffffffffffffffffff021916908373ffffffffffffffffffffffffffffffffffffffff16021790555080600160006101000a81548173ffffffffffffffffffffffffffffffffffffffff021916908373ffffffffffffffffffffffffffffffffffffffff1602179055505061040d806100c46000396000f300608060405260043610610041576000357c0100000000000000000000000000000000000000000000000000000000900463ffffffff1680635cd25e5314610046575b600080fd5b34801561005257600080fd5b506100896004803603810190808035906020019082018035906020019190919293919293908035906020019092919050505061008b565b005b6000809054906101000a900473ffffffffffffffffffffffffffffffffffffffff1673ffffffffffffffffffffffffffffffffffffffff163373ffffffffffffffffffffffffffffffffffffffff1614151561014f576040517f08c379a000000000000000000000000000000000000000000000000000000000815260040180806020018281038252601c8152602001807f43616c6c6572206973206e6f7420636f6e7472616374206f776e65720000000081525060200191505060405180910390fd5b600160009054906101000a900473ffffffffffffffffffffffffffffffffffffffff1673ffffffffffffffffffffffffffffffffffffffff166356b35dd58484846101998661022f565b6040518563ffffffff167c010000000000000000000000000000000000000000000000000000000002815260040180806020018481526020018381526020018281038252868682818152602001925080828437820191505095505050505050600060405180830381600087803b15801561021257600080fd5b505af1158015610226573d6000803e3d6000fd5b50505050505050565b60008060009054906101000a900473ffffffffffffffffffffffffffffffffffffffff1673ffffffffffffffffffffffffffffffffffffffff163373ffffffffffffffffffffffffffffffffffffffff161415156102f5576040517f08c379a000000000000000000000000000000000000000000000000000000000815260040180806020018281038252601c8152602001807f43616c6c6572206973206e6f7420636f6e7472616374206f776e65720000000081525060200191505060405180910390fd5b606482101561032c57610325606461031760058561039390919063ffffffff16565b6103cb90919063ffffffff16565b905061038e565b6101f48210156103645761035d606461034f60078561039390919063ffffffff16565b6103cb90919063ffffffff16565b905061038e565b61038b606461037d600a8561039390919063ffffffff16565b6103cb90919063ffffffff16565b90505b919050565b6000808314156103a657600090506103c5565b81830290508183828115156103b757fe5b041415156103c157fe5b8090505b92915050565b600081838115156103d857fe5b049050929150505600a165627a7a72305820ad2ff9a710c28eab1d516e9f75e5207c0d0ecdb91a7cf61361c96c068790375a0029",
  "source": "pragma solidity ^0.4.25;\r\n\r\n// It's important to avoid vulnerabilities due to numeric overflow bugs\r\n// OpenZeppelin's SafeMath library, when used correctly, protects agains such bugs\r\n// More info: https://www.nccgroup.trust/us/about-us/newsroom-and-events/blog/2018/november/smart-contract-insecurity-bad-arithmetic/\r\n\r\nimport \"../../node_modules/openzeppelin-solidity/contracts/math/SafeMath.sol\";\r\n\r\n\r\ncontract ExerciseC6CApp {\r\n    using SafeMath for uint256; // Allow SafeMath functions to be called for all uint256 types (similar to \"prototype\" in Javascript)\r\n\r\n\r\n    address private contractOwner;              // Account used to deploy contract\r\n    ExerciseC6C exerciseC6C; //references the other contract\r\n\r\n    modifier requireContractOwner()\r\n    {\r\n        require(msg.sender == contractOwner, \"Caller is not contract owner\");\r\n        _;\r\n    }\r\n    \r\n    constructor\r\n                                (\r\n                                    address dataContract\r\n                                ) \r\n                                public \r\n    {\r\n        contractOwner = msg.sender;\r\n        exerciseC6C = ExerciseC6C(dataContract);\r\n    }\r\n\r\n        function calculateBonus\r\n                            (\r\n                                uint256 sales\r\n                            )\r\n                            internal\r\n                            view\r\n                            requireContractOwner\r\n                            returns(uint256)\r\n    {\r\n        if (sales < 100) {\r\n            return sales.mul(5).div(100);\r\n        }\r\n        else if (sales < 500) {\r\n            return sales.mul(7).div(100);\r\n        }\r\n        else {\r\n            return sales.mul(10).div(100);\r\n        }\r\n    }\r\n\r\n        function addSale\r\n                                (\r\n                                    string id,\r\n                                    uint256 amount\r\n                                )\r\n                                external\r\n                                requireContractOwner\r\n    {\r\n        exerciseC6C.updateEmployee(\r\n                        id,\r\n                        amount,\r\n                        calculateBonus(amount)\r\n        );\r\n    }\r\n\r\n\r\n\r\n}\r\n\r\n//this tells the app contract how to interact with this contract very important!\r\ncontract ExerciseC6C {\r\n    function updateEmployee (\r\n                                string id,\r\n                                uint256 sales,\r\n                                uint256 bonus\r\n                            )\r\n                            external; //being called externally by C6C\r\n\r\n}",
  "sourcePath": "C:/Users/dcblo/Github/blockchain_udacity/dapp_smart_contracts/lesson1/BCND-C6-Exercises/contracts/ExerciseC6C/ExerciseC6CApp.sol",
  "compiler": {
    "name": "solc",
    "version": "0.4.26+commit.4563c3fc.Emscripten.clang"
  },
  "schemaVersion": "3.0.1",
  "updatedAt": "2021-05-11T00:30:10.449Z",
  "devdoc": {
    "methods": {}
  },
  "userdoc": {
    "methods": {}
  }
}